{
  "_format": "hh-sol-artifact-1",
  "contractName": "IdeaCollaboration",
  "sourceName": "contracts/IdeaCollaboration.sol",
  "abi": [
    {
      "anonymous": false,
      "inputs": [
        {
          "indexed": true,
          "internalType": "uint256",
          "name": "ideaId",
          "type": "uint256"
        },
        {
          "indexed": true,
          "internalType": "address",
          "name": "user",
          "type": "address"
        }
      ],
      "name": "CollaboratorAccepted",
      "type": "event"
    },
    {
      "anonymous": false,
      "inputs": [
        {
          "indexed": true,
          "internalType": "uint256",
          "name": "ideaId",
          "type": "uint256"
        },
        {
          "indexed": true,
          "internalType": "address",
          "name": "user",
          "type": "address"
        }
      ],
      "name": "CollaboratorRejected",
      "type": "event"
    },
    {
      "anonymous": false,
      "inputs": [
        {
          "indexed": false,
          "internalType": "uint256",
          "name": "ideaId",
          "type": "uint256"
        },
        {
          "indexed": true,
          "internalType": "address",
          "name": "publisher",
          "type": "address"
        }
      ],
      "name": "IdeaSubmitted",
      "type": "event"
    },
    {
      "anonymous": false,
      "inputs": [
        {
          "indexed": true,
          "internalType": "uint256",
          "name": "ideaId",
          "type": "uint256"
        },
        {
          "indexed": true,
          "internalType": "address",
          "name": "user",
          "type": "address"
        }
      ],
      "name": "InterestExpressed",
      "type": "event"
    },
    {
      "anonymous": false,
      "inputs": [
        {
          "indexed": true,
          "internalType": "uint256",
          "name": "ideaId",
          "type": "uint256"
        },
        {
          "indexed": true,
          "internalType": "address",
          "name": "voter",
          "type": "address"
        }
      ],
      "name": "Voted",
      "type": "event"
    },
    {
      "inputs": [
        {
          "internalType": "uint256",
          "name": "_ideaId",
          "type": "uint256"
        },
        {
          "internalType": "address",
          "name": "_collaborator",
          "type": "address"
        }
      ],
      "name": "acceptCollaborator",
      "outputs": [],
      "stateMutability": "nonpayable",
      "type": "function"
    },
    {
      "inputs": [
        {
          "internalType": "uint256",
          "name": "_ideaId",
          "type": "uint256"
        }
      ],
      "name": "closeIdea",
      "outputs": [],
      "stateMutability": "nonpayable",
      "type": "function"
    },
    {
      "inputs": [
        {
          "internalType": "uint256",
          "name": "_ideaId",
          "type": "uint256"
        }
      ],
      "name": "expressInterest",
      "outputs": [],
      "stateMutability": "nonpayable",
      "type": "function"
    },
    {
      "inputs": [
        {
          "internalType": "uint256",
          "name": "_ideaId",
          "type": "uint256"
        }
      ],
      "name": "getInterestedUsers",
      "outputs": [
        {
          "internalType": "address[]",
          "name": "",
          "type": "address[]"
        }
      ],
      "stateMutability": "view",
      "type": "function"
    },
    {
      "inputs": [
        {
          "internalType": "uint256",
          "name": "_ideaId",
          "type": "uint256"
        }
      ],
      "name": "getVoteCount",
      "outputs": [
        {
          "internalType": "uint256",
          "name": "",
          "type": "uint256"
        }
      ],
      "stateMutability": "view",
      "type": "function"
    },
    {
      "inputs": [],
      "name": "ideaCounter",
      "outputs": [
        {
          "internalType": "uint256",
          "name": "",
          "type": "uint256"
        }
      ],
      "stateMutability": "view",
      "type": "function"
    },
    {
      "inputs": [
        {
          "internalType": "uint256",
          "name": "",
          "type": "uint256"
        }
      ],
      "name": "ideas",
      "outputs": [
        {
          "internalType": "uint256",
          "name": "id",
          "type": "uint256"
        },
        {
          "internalType": "string",
          "name": "title",
          "type": "string"
        },
        {
          "internalType": "string",
          "name": "description",
          "type": "string"
        },
        {
          "internalType": "address",
          "name": "publisher",
          "type": "address"
        },
        {
          "internalType": "bool",
          "name": "isActive",
          "type": "bool"
        },
        {
          "internalType": "uint256",
          "name": "voteCount",
          "type": "uint256"
        }
      ],
      "stateMutability": "view",
      "type": "function"
    },
    {
      "inputs": [
        {
          "internalType": "uint256",
          "name": "",
          "type": "uint256"
        },
        {
          "internalType": "uint256",
          "name": "",
          "type": "uint256"
        }
      ],
      "name": "interests",
      "outputs": [
        {
          "internalType": "address",
          "name": "user",
          "type": "address"
        },
        {
          "internalType": "bool",
          "name": "isAccepted",
          "type": "bool"
        }
      ],
      "stateMutability": "view",
      "type": "function"
    },
    {
      "inputs": [
        {
          "internalType": "uint256",
          "name": "_ideaId",
          "type": "uint256"
        },
        {
          "internalType": "address",
          "name": "_collaborator",
          "type": "address"
        }
      ],
      "name": "isCollaboratorAccepted",
      "outputs": [
        {
          "internalType": "bool",
          "name": "",
          "type": "bool"
        }
      ],
      "stateMutability": "view",
      "type": "function"
    },
    {
      "inputs": [
        {
          "internalType": "uint256",
          "name": "_ideaId",
          "type": "uint256"
        },
        {
          "internalType": "address",
          "name": "_collaborator",
          "type": "address"
        }
      ],
      "name": "rejectCollaborator",
      "outputs": [],
      "stateMutability": "nonpayable",
      "type": "function"
    },
    {
      "inputs": [
        {
          "internalType": "string",
          "name": "_title",
          "type": "string"
        },
        {
          "internalType": "string",
          "name": "_description",
          "type": "string"
        }
      ],
      "name": "submitIdea",
      "outputs": [],
      "stateMutability": "nonpayable",
      "type": "function"
    },
    {
      "inputs": [
        {
          "internalType": "uint256",
          "name": "_ideaId",
          "type": "uint256"
        }
      ],
      "name": "vote",
      "outputs": [],
      "stateMutability": "nonpayable",
      "type": "function"
    }
  ],
  "bytecode": "0x60806040526000805534801561001457600080fd5b50610eef806100246000396000f3fe608060405234801561001057600080fd5b50600436106100b45760003560e01c80638e798421116100715780638e7984211461016157806395b5383714610174578063b2c2f2e814610199578063df7deda1146101ca578063f796c724146101d3578063ffa216af146101e657600080fd5b80630121b93f146100b95780630d16f829146100ce5780633e3cb604146100e157806346a8e96b146100f45780637b8f6a151461011c5780638663fc261461014e575b600080fd5b6100cc6100c7366004610a88565b610206565b005b6100cc6100dc366004610aa1565b61035a565b6100cc6100ef366004610aa1565b61046f565b610107610102366004610aa1565b61056e565b60405190151581526020015b60405180910390f35b61012f61012a366004610add565b61060e565b604080516001600160a01b039093168352901515602083015201610113565b6100cc61015c366004610a88565b610651565b6100cc61016f366004610ba2565b6106ab565b610187610182366004610a88565b610764565b60405161011396959493929190610c4c565b6101bc6101a7366004610a88565b60009081526001602052604090206004015490565b604051908152602001610113565b6101bc60005481565b6100cc6101e1366004610a88565b6108b8565b6101f96101f4366004610a88565b6109b4565b6040516101139190610c9f565b6000818152600160205260409020600301548190600160a01b900460ff166102755760405162461bcd60e51b815260206004820152601d60248201527f546869732069646561206973206e6f206c6f6e6765722061637469766500000060448201526064015b60405180910390fd5b600082815260016020908152604080832033845260050190915290205460ff16156102ee5760405162461bcd60e51b8152602060048201526024808201527f596f75206861766520616c726561647920766f74656420666f722074686973206044820152636964656160e01b606482015260840161026c565b6000828152600160205260408120600481018054919261030d83610cec565b9091555050336000818152600583016020526040808220805460ff191660011790555185917f030b0f8dcd86a031eddb071f91882edeac8173663ba775713b677b42b51be44b91a3505050565b60008281526001602052604090206003015482906001600160a01b031633146103955760405162461bcd60e51b815260040161026c90610d13565b6000838152600260205260408120905b815481101561046857836001600160a01b03168282815481106103ca576103ca610d5a565b6000918252602090912001546001600160a01b0316036104565760018282815481106103f8576103f8610d5a565b600091825260208220018054921515600160a01b0260ff60a01b19909316929092179091556040516001600160a01b0386169187917fcbb454d4ab96822536b5a904d42568b5bb13a9c8ad0370798df99d08f0e5072b9190a3610468565b8061046081610cec565b9150506103a5565b5050505050565b60008281526001602052604090206003015482906001600160a01b031633146104aa5760405162461bcd60e51b815260040161026c90610d13565b6000838152600260205260408120905b815481101561046857836001600160a01b03168282815481106104df576104df610d5a565b6000918252602090912001546001600160a01b03160361055c5781818154811061050b5761050b610d5a565b6000918252602082200180546001600160a81b03191690556040516001600160a01b0386169187917f3d04572e812186666e4efa829a9b73e47d3029e70ef4ff168e1c76e8348d9b769190a3610468565b8061056681610cec565b9150506104ba565b6000828152600260205260408120815b815481101561060157836001600160a01b03168282815481106105a3576105a3610d5a565b6000918252602090912001546001600160a01b0316036105ef578181815481106105cf576105cf610d5a565b600091825260209091200154600160a01b900460ff169250610608915050565b806105f981610cec565b91505061057e565b5060009150505b92915050565b6002602052816000526040600020818154811061062a57600080fd5b6000918252602090912001546001600160a01b0381169250600160a01b900460ff16905082565b60008181526001602052604090206003015481906001600160a01b0316331461068c5760405162461bcd60e51b815260040161026c90610d13565b506000908152600160205260409020600301805460ff60a01b19169055565b6000805490806106ba83610cec565b9091555050600080548082526001602081905260409092209081559081016106e28482610df9565b50600281016106f18382610df9565b5060038101805460ff60a01b19339081166001600160a81b031990921691909117600160a01b17909155600060048301819055546040517f6e8a4bf78faca49cf95dfac3c83ac1a4ea37b6ad58fc82fad84798da153c4f0e916107579190815260200190565b60405180910390a2505050565b60016020819052600091825260409091208054918101805461078590610d70565b80601f01602080910402602001604051908101604052809291908181526020018280546107b190610d70565b80156107fe5780601f106107d3576101008083540402835291602001916107fe565b820191906000526020600020905b8154815290600101906020018083116107e157829003601f168201915b50505050509080600201805461081390610d70565b80601f016020809104026020016040519081016040528092919081815260200182805461083f90610d70565b801561088c5780601f106108615761010080835404028352916020019161088c565b820191906000526020600020905b81548152906001019060200180831161086f57829003601f168201915b50505050600383015460049093015491926001600160a01b03811692600160a01b90910460ff16915086565b6000818152600160205260409020600301548190600160a01b900460ff166109225760405162461bcd60e51b815260206004820152601d60248201527f546869732069646561206973206e6f206c6f6e67657220616374697665000000604482015260640161026c565b600082815260026020908152604080832081518083018352338082528185018681528354600181018555938752948620915191909201805494511515600160a01b026001600160a81b03199095166001600160a01b0392909216919091179390931790925551909184917ff4bbe362f314aaa4e2c6ab74a9685e56eb611de018f5caaece09409e9a9769a09190a35050565b600081815260026020526040812080546060929067ffffffffffffffff8111156109e0576109e0610aff565b604051908082528060200260200182016040528015610a09578160200160208202803683370190505b50905060005b8254811015610a8057828181548110610a2a57610a2a610d5a565b60009182526020909120015482516001600160a01b0390911690839083908110610a5657610a56610d5a565b6001600160a01b039092166020928302919091019091015280610a7881610cec565b915050610a0f565b509392505050565b600060208284031215610a9a57600080fd5b5035919050565b60008060408385031215610ab457600080fd5b8235915060208301356001600160a01b0381168114610ad257600080fd5b809150509250929050565b60008060408385031215610af057600080fd5b50508035926020909101359150565b634e487b7160e01b600052604160045260246000fd5b600082601f830112610b2657600080fd5b813567ffffffffffffffff80821115610b4157610b41610aff565b604051601f8301601f19908116603f01168101908282118183101715610b6957610b69610aff565b81604052838152866020858801011115610b8257600080fd5b836020870160208301376000602085830101528094505050505092915050565b60008060408385031215610bb557600080fd5b823567ffffffffffffffff80821115610bcd57600080fd5b610bd986838701610b15565b93506020850135915080821115610bef57600080fd5b50610bfc85828601610b15565b9150509250929050565b6000815180845260005b81811015610c2c57602081850181015186830182015201610c10565b506000602082860101526020601f19601f83011685010191505092915050565b86815260c060208201526000610c6560c0830188610c06565b8281036040840152610c778188610c06565b6001600160a01b039690961660608401525050911515608083015260a0909101529392505050565b6020808252825182820181905260009190848201906040850190845b81811015610ce05783516001600160a01b031683529284019291840191600101610cbb565b50909695505050505050565b600060018201610d0c57634e487b7160e01b600052601160045260246000fd5b5060010190565b60208082526027908201527f4f6e6c79207075626c69736865722063616e2061636365707420636f6c6c61626040820152666f7261746f727360c81b606082015260800190565b634e487b7160e01b600052603260045260246000fd5b600181811c90821680610d8457607f821691505b602082108103610da457634e487b7160e01b600052602260045260246000fd5b50919050565b601f821115610df457600081815260208120601f850160051c81016020861015610dd15750805b601f850160051c820191505b81811015610df057828155600101610ddd565b5050505b505050565b815167ffffffffffffffff811115610e1357610e13610aff565b610e2781610e218454610d70565b84610daa565b602080601f831160018114610e5c5760008415610e445750858301515b600019600386901b1c1916600185901b178555610df0565b600085815260208120601f198616915b82811015610e8b57888601518255948401946001909101908401610e6c565b5085821015610ea95787850151600019600388901b60f8161c191681555b5050505050600190811b0190555056fea264697066735822122091797a2622e506e71bfa1e81bf8778bcb4c455f089ae8bd48023293f6cca385664736f6c63430008130033",
  "linkReferences": {},
  "deployedLinkReferences": {}
}